{
  "_format": "hh-sol-artifact-1",
  "contractName": "DecentralizedSkillCertification",
  "sourceName": "contracts/DecentralizedSkillCertification.sol",
  "abi": [
    {
      "inputs": [],
      "stateMutability": "nonpayable",
      "type": "constructor"
    },
    {
      "anonymous": false,
      "inputs": [
        {
          "indexed": false,
          "internalType": "uint256",
          "name": "id",
          "type": "uint256"
        },
        {
          "indexed": false,
          "internalType": "string",
          "name": "skill",
          "type": "string"
        },
        {
          "indexed": false,
          "internalType": "string",
          "name": "level",
          "type": "string"
        },
        {
          "indexed": true,
          "internalType": "address",
          "name": "issuer",
          "type": "address"
        },
        {
          "indexed": true,
          "internalType": "address",
          "name": "recipient",
          "type": "address"
        },
        {
          "indexed": false,
          "internalType": "uint256",
          "name": "timestamp",
          "type": "uint256"
        }
      ],
      "name": "CertificationIssued",
      "type": "event"
    },
    {
      "inputs": [
        {
          "internalType": "uint256",
          "name": "",
          "type": "uint256"
        }
      ],
      "name": "certifications",
      "outputs": [
        {
          "internalType": "uint256",
          "name": "id",
          "type": "uint256"
        },
        {
          "internalType": "string",
          "name": "skill",
          "type": "string"
        },
        {
          "internalType": "string",
          "name": "level",
          "type": "string"
        },
        {
          "internalType": "address",
          "name": "issuer",
          "type": "address"
        },
        {
          "internalType": "address",
          "name": "recipient",
          "type": "address"
        },
        {
          "internalType": "uint256",
          "name": "timestamp",
          "type": "uint256"
        }
      ],
      "stateMutability": "view",
      "type": "function"
    },
    {
      "inputs": [
        {
          "internalType": "uint256",
          "name": "_certificationId",
          "type": "uint256"
        }
      ],
      "name": "getCertificationById",
      "outputs": [
        {
          "components": [
            {
              "internalType": "uint256",
              "name": "id",
              "type": "uint256"
            },
            {
              "internalType": "string",
              "name": "skill",
              "type": "string"
            },
            {
              "internalType": "string",
              "name": "level",
              "type": "string"
            },
            {
              "internalType": "address",
              "name": "issuer",
              "type": "address"
            },
            {
              "internalType": "address",
              "name": "recipient",
              "type": "address"
            },
            {
              "internalType": "uint256",
              "name": "timestamp",
              "type": "uint256"
            }
          ],
          "internalType": "struct DecentralizedSkillCertification.Certification",
          "name": "",
          "type": "tuple"
        }
      ],
      "stateMutability": "view",
      "type": "function"
    },
    {
      "inputs": [
        {
          "internalType": "address",
          "name": "_issuer",
          "type": "address"
        }
      ],
      "name": "getCertificationsByIssuer",
      "outputs": [
        {
          "internalType": "uint256[]",
          "name": "",
          "type": "uint256[]"
        }
      ],
      "stateMutability": "view",
      "type": "function"
    },
    {
      "inputs": [
        {
          "internalType": "address",
          "name": "_recipient",
          "type": "address"
        }
      ],
      "name": "getCertificationsByRecipient",
      "outputs": [
        {
          "internalType": "uint256[]",
          "name": "",
          "type": "uint256[]"
        }
      ],
      "stateMutability": "view",
      "type": "function"
    },
    {
      "inputs": [
        {
          "internalType": "address",
          "name": "_recipient",
          "type": "address"
        },
        {
          "internalType": "string",
          "name": "_skill",
          "type": "string"
        },
        {
          "internalType": "string",
          "name": "_level",
          "type": "string"
        }
      ],
      "name": "issueCertification",
      "outputs": [],
      "stateMutability": "nonpayable",
      "type": "function"
    },
    {
      "inputs": [
        {
          "internalType": "address",
          "name": "",
          "type": "address"
        },
        {
          "internalType": "uint256",
          "name": "",
          "type": "uint256"
        }
      ],
      "name": "issuerCertifications",
      "outputs": [
        {
          "internalType": "uint256",
          "name": "",
          "type": "uint256"
        }
      ],
      "stateMutability": "view",
      "type": "function"
    },
    {
      "inputs": [],
      "name": "nextCertificationId",
      "outputs": [
        {
          "internalType": "uint256",
          "name": "",
          "type": "uint256"
        }
      ],
      "stateMutability": "view",
      "type": "function"
    },
    {
      "inputs": [],
      "name": "owner",
      "outputs": [
        {
          "internalType": "address",
          "name": "",
          "type": "address"
        }
      ],
      "stateMutability": "view",
      "type": "function"
    },
    {
      "inputs": [
        {
          "internalType": "address",
          "name": "",
          "type": "address"
        },
        {
          "internalType": "uint256",
          "name": "",
          "type": "uint256"
        }
      ],
      "name": "recipientCertifications",
      "outputs": [
        {
          "internalType": "uint256",
          "name": "",
          "type": "uint256"
        }
      ],
      "stateMutability": "view",
      "type": "function"
    },
    {
      "inputs": [
        {
          "internalType": "uint256",
          "name": "_certificationId",
          "type": "uint256"
        }
      ],
      "name": "verifyCertification",
      "outputs": [
        {
          "internalType": "bool",
          "name": "",
          "type": "bool"
        }
      ],
      "stateMutability": "view",
      "type": "function"
    }
  ],
  "bytecode": "0x608060405234801561001057600080fd5b5033600460006101000a81548173ffffffffffffffffffffffffffffffffffffffff021916908373ffffffffffffffffffffffffffffffffffffffff1602179055506114ed806100616000396000f3fe608060405234801561001057600080fd5b506004361061009e5760003560e01c80638da5cb5b116100665780638da5cb5b1461018457806390219c83146101a25780639f06c395146101d2578063c35b991714610202578063eb5b06bc146102325761009e565b80630eebc250146100a357806327225077146100d35780633c0359a41461010357806365cae1ef146101385780637ea8f34c14610168575b600080fd5b6100bd60048036038101906100b89190610ea0565b610250565b6040516100ca9190611142565b60405180910390f35b6100ed60048036038101906100e89190610edc565b610281565b6040516100fa9190611120565b60405180910390f35b61011d60048036038101906101189190610edc565b610491565b60405161012f9695949392919061115d565b60405180910390f35b610152600480360381019061014d9190610df8565b61061d565b60405161015f91906110e3565b60405180910390f35b610182600480360381019061017d9190610e21565b6106b4565b005b61018c610956565b60405161019991906110c8565b60405180910390f35b6101bc60048036038101906101b79190610ea0565b61097c565b6040516101c99190611142565b60405180910390f35b6101ec60048036038101906101e79190610edc565b6109ad565b6040516101f99190611105565b60405180910390f35b61021c60048036038101906102179190610df8565b610bc4565b60405161022991906110e3565b60405180910390f35b61023a610c5b565b6040516102479190611142565b60405180910390f35b6002602052816000526040600020818154811061026c57600080fd5b90600052602060002001600091509150505481565b610289610c61565b6000808381526020019081526020016000206040518060c0016040529081600082015481526020016001820180546102c090611370565b80601f01602080910402602001604051908101604052809291908181526020018280546102ec90611370565b80156103395780601f1061030e57610100808354040283529160200191610339565b820191906000526020600020905b81548152906001019060200180831161031c57829003601f168201915b5050505050815260200160028201805461035290611370565b80601f016020809104026020016040519081016040528092919081815260200182805461037e90611370565b80156103cb5780601f106103a0576101008083540402835291602001916103cb565b820191906000526020600020905b8154815290600101906020018083116103ae57829003601f168201915b505050505081526020016003820160009054906101000a900473ffffffffffffffffffffffffffffffffffffffff1673ffffffffffffffffffffffffffffffffffffffff1673ffffffffffffffffffffffffffffffffffffffff1681526020016004820160009054906101000a900473ffffffffffffffffffffffffffffffffffffffff1673ffffffffffffffffffffffffffffffffffffffff1673ffffffffffffffffffffffffffffffffffffffff1681526020016005820154815250509050919050565b60006020528060005260406000206000915090508060000154908060010180546104ba90611370565b80601f01602080910402602001604051908101604052809291908181526020018280546104e690611370565b80156105335780601f1061050857610100808354040283529160200191610533565b820191906000526020600020905b81548152906001019060200180831161051657829003601f168201915b50505050509080600201805461054890611370565b80601f016020809104026020016040519081016040528092919081815260200182805461057490611370565b80156105c15780601f10610596576101008083540402835291602001916105c1565b820191906000526020600020905b8154815290600101906020018083116105a457829003601f168201915b5050505050908060030160009054906101000a900473ffffffffffffffffffffffffffffffffffffffff16908060040160009054906101000a900473ffffffffffffffffffffffffffffffffffffffff16908060050154905086565b6060600260008373ffffffffffffffffffffffffffffffffffffffff1673ffffffffffffffffffffffffffffffffffffffff1681526020019081526020016000208054806020026020016040519081016040528092919081815260200182805480156106a857602002820191906000526020600020905b815481526020019060010190808311610694575b50505050509050919050565b6000600360008154809291906106c9906113a2565b9190505590506040518060c001604052808281526020018481526020018381526020013373ffffffffffffffffffffffffffffffffffffffff1681526020018573ffffffffffffffffffffffffffffffffffffffff16815260200142815250600080838152602001908152602001600020600082015181600001556020820151816001019080519060200190610760929190610cc3565b50604082015181600201908051906020019061077d929190610cc3565b5060608201518160030160006101000a81548173ffffffffffffffffffffffffffffffffffffffff021916908373ffffffffffffffffffffffffffffffffffffffff16021790555060808201518160040160006101000a81548173ffffffffffffffffffffffffffffffffffffffff021916908373ffffffffffffffffffffffffffffffffffffffff16021790555060a08201518160050155905050600160008573ffffffffffffffffffffffffffffffffffffffff1673ffffffffffffffffffffffffffffffffffffffff168152602001908152602001600020819080600181540180825580915050600190039060005260206000200160009091909190915055600260003373ffffffffffffffffffffffffffffffffffffffff1673ffffffffffffffffffffffffffffffffffffffff1681526020019081526020016000208190806001815401808255809150506001900390600052602060002001600090919091909150558373ffffffffffffffffffffffffffffffffffffffff163373ffffffffffffffffffffffffffffffffffffffff167fcdff2e571010e4b4939c003810a2985e5b49fc81b3d40dfe03efb6a6502c0e788386864260405161094894939291906111cc565b60405180910390a350505050565b600460009054906101000a900473ffffffffffffffffffffffffffffffffffffffff1681565b6001602052816000526040600020818154811061099857600080fd5b90600052602060002001600091509150505481565b6000806000808481526020019081526020016000206040518060c0016040529081600082015481526020016001820180546109e790611370565b80601f0160208091040260200160405190810160405280929190818152602001828054610a1390611370565b8015610a605780601f10610a3557610100808354040283529160200191610a60565b820191906000526020600020905b815481529060010190602001808311610a4357829003601f168201915b50505050508152602001600282018054610a7990611370565b80601f0160208091040260200160405190810160405280929190818152602001828054610aa590611370565b8015610af25780601f10610ac757610100808354040283529160200191610af2565b820191906000526020600020905b815481529060010190602001808311610ad557829003601f168201915b505050505081526020016003820160009054906101000a900473ffffffffffffffffffffffffffffffffffffffff1673ffffffffffffffffffffffffffffffffffffffff1673ffffffffffffffffffffffffffffffffffffffff1681526020016004820160009054906101000a900473ffffffffffffffffffffffffffffffffffffffff1673ffffffffffffffffffffffffffffffffffffffff1673ffffffffffffffffffffffffffffffffffffffff168152602001600582015481525050905060008160a001511415915050919050565b6060600160008373ffffffffffffffffffffffffffffffffffffffff1673ffffffffffffffffffffffffffffffffffffffff168152602001908152602001600020805480602002602001604051908101604052809291908181526020018280548015610c4f57602002820191906000526020600020905b815481526020019060010190808311610c3b575b50505050509050919050565b60035481565b6040518060c00160405280600081526020016060815260200160608152602001600073ffffffffffffffffffffffffffffffffffffffff168152602001600073ffffffffffffffffffffffffffffffffffffffff168152602001600081525090565b828054610ccf90611370565b90600052602060002090601f016020900481019282610cf15760008555610d38565b82601f10610d0a57805160ff1916838001178555610d38565b82800160010185558215610d38579182015b82811115610d37578251825591602001919060010190610d1c565b5b509050610d459190610d49565b5090565b5b80821115610d62576000816000905550600101610d4a565b5090565b6000610d79610d7484611250565b61121f565b905082815260208101848484011115610d9157600080fd5b610d9c84828561132e565b509392505050565b600081359050610db381611489565b92915050565b600082601f830112610dca57600080fd5b8135610dda848260208601610d66565b91505092915050565b600081359050610df2816114a0565b92915050565b600060208284031215610e0a57600080fd5b6000610e1884828501610da4565b91505092915050565b600080600060608486031215610e3657600080fd5b6000610e4486828701610da4565b935050602084013567ffffffffffffffff811115610e6157600080fd5b610e6d86828701610db9565b925050604084013567ffffffffffffffff811115610e8a57600080fd5b610e9686828701610db9565b9150509250925092565b60008060408385031215610eb357600080fd5b6000610ec185828601610da4565b9250506020610ed285828601610de3565b9150509250929050565b600060208284031215610eee57600080fd5b6000610efc84828501610de3565b91505092915050565b6000610f1183836110aa565b60208301905092915050565b610f26816112e6565b82525050565b610f35816112e6565b82525050565b6000610f4682611290565b610f5081856112b3565b9350610f5b83611280565b8060005b83811015610f8c578151610f738882610f05565b9750610f7e836112a6565b925050600181019050610f5f565b5085935050505092915050565b610fa2816112f8565b82525050565b6000610fb38261129b565b610fbd81856112c4565b9350610fcd81856020860161133d565b610fd681611478565b840191505092915050565b6000610fec8261129b565b610ff681856112d5565b935061100681856020860161133d565b61100f81611478565b840191505092915050565b600060c08301600083015161103260008601826110aa565b506020830151848203602086015261104a8282610fa8565b915050604083015184820360408601526110648282610fa8565b91505060608301516110796060860182610f1d565b50608083015161108c6080860182610f1d565b5060a083015161109f60a08601826110aa565b508091505092915050565b6110b381611324565b82525050565b6110c281611324565b82525050565b60006020820190506110dd6000830184610f2c565b92915050565b600060208201905081810360008301526110fd8184610f3b565b905092915050565b600060208201905061111a6000830184610f99565b92915050565b6000602082019050818103600083015261113a818461101a565b905092915050565b600060208201905061115760008301846110b9565b92915050565b600060c08201905061117260008301896110b9565b81810360208301526111848188610fe1565b905081810360408301526111988187610fe1565b90506111a76060830186610f2c565b6111b46080830185610f2c565b6111c160a08301846110b9565b979650505050505050565b60006080820190506111e160008301876110b9565b81810360208301526111f38186610fe1565b905081810360408301526112078185610fe1565b905061121660608301846110b9565b95945050505050565b6000604051905081810181811067ffffffffffffffff8211171561124657611245611449565b5b8060405250919050565b600067ffffffffffffffff82111561126b5761126a611449565b5b601f19601f8301169050602081019050919050565b6000819050602082019050919050565b600081519050919050565b600081519050919050565b6000602082019050919050565b600082825260208201905092915050565b600082825260208201905092915050565b600082825260208201905092915050565b60006112f182611304565b9050919050565b60008115159050919050565b600073ffffffffffffffffffffffffffffffffffffffff82169050919050565b6000819050919050565b82818337600083830152505050565b60005b8381101561135b578082015181840152602081019050611340565b8381111561136a576000848401525b50505050565b6000600282049050600182168061138857607f821691505b6020821081141561139c5761139b61141a565b5b50919050565b60006113ad82611324565b91507fffffffffffffffffffffffffffffffffffffffffffffffffffffffffffffffff8214156113e0576113df6113eb565b5b600182019050919050565b7f4e487b7100000000000000000000000000000000000000000000000000000000600052601160045260246000fd5b7f4e487b7100000000000000000000000000000000000000000000000000000000600052602260045260246000fd5b7f4e487b7100000000000000000000000000000000000000000000000000000000600052604160045260246000fd5b6000601f19601f8301169050919050565b611492816112e6565b811461149d57600080fd5b50565b6114a981611324565b81146114b457600080fd5b5056fea2646970667358221220c85d65f6bb46f69aafd886b7d6a5e38dd04fc4d46e098e30aa6c0c835883475964736f6c63430008000033",
  "linkReferences": {},
  "deployedLinkReferences": {}
}